{
  "additionalData": {
    "vinouts": [
      {
        "index": 0,
        "vinvout": {
          "n": 1,
          "scriptPubKey": {
            "address": "tb1q8yu29c59hlmem3hed28f49k4f3kwwkrv4smgkh",
            "asm": "0 3938a2e285bff79dc6f96a8e9a96d54c6ce7586c",
            "desc": "addr(tb1q8yu29c59hlmem3hed28f49k4f3kwwkrv4smgkh)#hn522arq",
            "hex": "00143938a2e285bff79dc6f96a8e9a96d54c6ce7586c",
            "type": "witness_v0_keyhash"
          },
          "value": 0.0003127
        }
      }
    ]
  },
  "data": {
    "txid": "76efdbf38b8f970ddb5356933d1eca136d49d767a395d64903e15bfd8940a609",
    "hash": "0782cb0ebb3b14e59b798a84b6d45df3011e0cd4230ec9910c7f3d8b6ba36ce4",
    "version": 2,
    "size": 265,
    "vsize": 184,
    "weight": 733,
    "locktime": 0,
    "vin": [
      {
        "txid": "c35770cbdca0138960542f9ad35f7c4010735526b7a1a76552d2dd1ed3e42f11",
        "vout": 1,
        "scriptSig": {
          "asm": "",
          "hex": ""
        },
        "txinwitness": [
          "304402206d36e13b9e131d93243fd46f42d29ee7b1717c708b0bb2a038ca66cbd82a196a02205f8fdc3d86c661cc2beb8270f9215377a93d16c53bc0c7ad078bfa729fbc965b01",
          "0307fb2416e1477f965dfee36f9525b0642759b22c23430ebe9a63124d62634b52"
        ],
        "prevout": {
          "generated": false,
          "height": 2409259,
          "value": 0.0003127,
          "scriptPubKey": {
            "asm": "0 3938a2e285bff79dc6f96a8e9a96d54c6ce7586c",
            "desc": "addr(tb1q8yu29c59hlmem3hed28f49k4f3kwwkrv4smgkh)#hn522arq",
            "hex": "00143938a2e285bff79dc6f96a8e9a96d54c6ce7586c",
            "address": "tb1q8yu29c59hlmem3hed28f49k4f3kwwkrv4smgkh",
            "type": "witness_v0_keyhash"
          }
        },
        "sequence": 4294967293
      }
    ],
    "vout": [
      {
        "value": 0.0002947,
        "n": 0,
        "scriptPubKey": {
          "asm": "0 3938a2e285bff79dc6f96a8e9a96d54c6ce7586c",
          "desc": "addr(tb1q8yu29c59hlmem3hed28f49k4f3kwwkrv4smgkh)#hn522arq",
          "hex": "00143938a2e285bff79dc6f96a8e9a96d54c6ce7586c",
          "address": "tb1q8yu29c59hlmem3hed28f49k4f3kwwkrv4smgkh",
          "type": "witness_v0_keyhash"
        }
      },
      {
        "value": 0.000005,
        "n": 1,
        "scriptPubKey": {
          "asm": "0 5a54cd95ac0c4b21048a12c4783eff0f71987c3e",
          "desc": "addr(tb1qtf2vm9dvp39jzpy2ztz8s0hlpaceslp7dkevpu)#cnaq5fky",
          "hex": "00145a54cd95ac0c4b21048a12c4783eff0f71987c3e",
          "address": "tb1qtf2vm9dvp39jzpy2ztz8s0hlpaceslp7dkevpu",
          "type": "witness_v0_keyhash"
        }
      },
      {
        "value": 0.0,
        "n": 2,
        "scriptPubKey": {
          "asm": "OP_RETURN 48656c6c6f205361746f73686942656e746f2054657374203230323231323038",
          "desc": "raw(6a2048656c6c6f205361746f73686942656e746f2054657374203230323231323038)#vlhwqgs9",
          "hex": "6a2048656c6c6f205361746f73686942656e746f2054657374203230323231323038",
          "type": "nulldata"
        }
      }
    ],
    "fee": 0.000013,
    "hex": "02000000000101112fe4d31eddd25265a7a1b726557310407c5fd39a2f54608913a0dccb7057c30100000000fdffffff031e730000000000001600143938a2e285bff79dc6f96a8e9a96d54c6ce7586cf4010000000000001600145a54cd95ac0c4b21048a12c4783eff0f71987c3e0000000000000000226a2048656c6c6f205361746f73686942656e746f20546573742032303232313230380247304402206d36e13b9e131d93243fd46f42d29ee7b1717c708b0bb2a038ca66cbd82a196a02205f8fdc3d86c661cc2beb8270f9215377a93d16c53bc0c7ad078bfa729fbc965b01210307fb2416e1477f965dfee36f9525b0642759b22c23430ebe9a63124d62634b5200000000",
    "blockhash": "00000000000044c90ede09b1d3b2022a9c78f4cb060ec8e0a3fc7e8014ca8b7f",
    "confirmations": 32504,
    "time": 1670493707,
    "blocktime": 1670493707
  }
}