{
  "txid": "70d5d26e61f4718f515865449e110a82e7147669b554256e5b1c1b1201fd2861",
  "hash": "70d5d26e61f4718f515865449e110a82e7147669b554256e5b1c1b1201fd2861",
  "version": 2,
  "size": 222,
  "vsize": 222,
  "weight": 888,
  "locktime": 0,
  "vin": [
    {
      "txid": "eaccf95e90f2252c91ffb34f57854f38973ff3bfc9c0b0d036a98111b7cc6903",
      "vout": 0,
      "scriptSig": {
        "asm": "3044022038769de40e434b458409f20734856f62b22f27b835b778d699f4b0a17f6b713c02207a700e37646838bcd0a3c2618004b919eacdc3eafcaa923a2d73f694a1338c19[ALL] 02aef80b855bac84033414d15c70082b541e4923c174bfdf01ff9a4e48ae05a553",
        "hex": "473044022038769de40e434b458409f20734856f62b22f27b835b778d699f4b0a17f6b713c02207a700e37646838bcd0a3c2618004b919eacdc3eafcaa923a2d73f694a1338c19012102aef80b855bac84033414d15c70082b541e4923c174bfdf01ff9a4e48ae05a553"
      },
      "prevout": {
        "generated": false,
        "height": 811500,
        "value": 3.60704672,
        "scriptPubKey": {
          "asm": "OP_DUP OP_HASH160 27c5e657972f8b4b2364de3f441cc6120490bfa4 OP_EQUALVERIFY OP_CHECKSIG",
          "desc": "addr(14dJRoKyj2i83uRbTUeKqhFMwvFZcpiXyn)#6npn9wkm",
          "hex": "76a91427c5e657972f8b4b2364de3f441cc6120490bfa488ac",
          "address": "14dJRoKyj2i83uRbTUeKqhFMwvFZcpiXyn",
          "type": "pubkeyhash"
        }
      },
      "sequence": 0
    }
  ],
  "vout": [
    {
      "value": 3.44464148,
      "n": 0,
      "scriptPubKey": {
        "asm": "OP_DUP OP_HASH160 27c5e657972f8b4b2364de3f441cc6120490bfa4 OP_EQUALVERIFY OP_CHECKSIG",
        "desc": "addr(14dJRoKyj2i83uRbTUeKqhFMwvFZcpiXyn)#6npn9wkm",
        "hex": "76a91427c5e657972f8b4b2364de3f441cc6120490bfa488ac",
        "address": "14dJRoKyj2i83uRbTUeKqhFMwvFZcpiXyn",
        "type": "pubkeyhash"
      }
    },
    {
      "value": 0.16190524,
      "n": 1,
      "scriptPubKey": {
        "asm": "0 26260247cb4998f8a6259828abdb0f78aa9e3615",
        "desc": "addr(bc1qycnqy37tfxv03f39nq52hkc00z4fuds4dfth6w)#vd5npfs4",
        "hex": "001426260247cb4998f8a6259828abdb0f78aa9e3615",
        "address": "bc1qycnqy37tfxv03f39nq52hkc00z4fuds4dfth6w",
        "type": "witness_v0_keyhash"
      }
    }
  ],
  "fee": 0.0005,
  "hex": "02000000010369ccb71181a936d0b0c0c9bff33f97384f85574fb3ff912c25f2905ef9ccea000000006a473044022038769de40e434b458409f20734856f62b22f27b835b778d699f4b0a17f6b713c02207a700e37646838bcd0a3c2618004b919eacdc3eafcaa923a2d73f694a1338c19012102aef80b855bac84033414d15c70082b541e4923c174bfdf01ff9a4e48ae05a5530000000002141b8814000000001976a91427c5e657972f8b4b2364de3f441cc6120490bfa488ac3c0cf7000000000016001426260247cb4998f8a6259828abdb0f78aa9e361500000000",
  "blockhash": "00000000000000000001a7226413c21773a990641a270312ba9f214e893468c7",
  "confirmations": 1971,
  "time": 1696928363,
  "blocktime": 1696928363
}
