{
  "txid": "53bb7420d146c957ed4f41c5175043503b5e953ed5af0387340f8c2c4949c2e1",
  "hash": "53bb7420d146c957ed4f41c5175043503b5e953ed5af0387340f8c2c4949c2e1",
  "version": 1,
  "size": 379,
  "vsize": 379,
  "weight": 1516,
  "locktime": 0,
  "vin": [
    {
      "txid": "f4aef51480fa69391aebad45a2d78face143bcc3b08876b0e6377499b9d38174",
      "vout": 1,
      "scriptSig": {
        "asm": "3044022023580b1b97c1d9bf7b5fd71104f76ceb7efb6f1d8749cf8cae8565da0deb253a02200cc0f09e2dd38330ac1c08b519860915bafd6f9deacf89516dbf8c0c81e129af[ALL] 023df8cde8f0a20a65a0492163d0b7ed5fe7bc93d47365063514bc9f264de2f1e3",
        "hex": "473044022023580b1b97c1d9bf7b5fd71104f76ceb7efb6f1d8749cf8cae8565da0deb253a02200cc0f09e2dd38330ac1c08b519860915bafd6f9deacf89516dbf8c0c81e129af0121023df8cde8f0a20a65a0492163d0b7ed5fe7bc93d47365063514bc9f264de2f1e3"
      },
      "prevout": {
        "generated": false,
        "height": 578772,
        "value": 0.200304,
        "scriptPubKey": {
          "asm": "OP_DUP OP_HASH160 93f091a343cd7e57f11e2a4d13b0b6d55dbee7a5 OP_EQUALVERIFY OP_CHECKSIG",
          "desc": "addr(1EVEXDi4TktbCBRq51fACUUhHeTMCCFtG5)#h20t4y0n",
          "hex": "76a91493f091a343cd7e57f11e2a4d13b0b6d55dbee7a588ac",
          "address": "1EVEXDi4TktbCBRq51fACUUhHeTMCCFtG5",
          "type": "pubkeyhash"
        }
      },
      "sequence": 4294967295
    },
    {
      "txid": "1b463b9cd6a0376980f30287805be73b39b668249a66c33e0c9478776f6ffa62",
      "vout": 1,
      "scriptSig": {
        "asm": "304402207fa87f7dbede82349b4ecc3836a3c11a06f817c74aace9adc30a944130f4d58f02205f7bfe81adc802661adcd59dae4e84bf5d73c39fa1ae82a86525ad373431ed61[ALL] 033d63feae1b7506fb537bbfbb266cbdf901c3ce7a28443f7bcd2d8233fdd351cb",
        "hex": "47304402207fa87f7dbede82349b4ecc3836a3c11a06f817c74aace9adc30a944130f4d58f02205f7bfe81adc802661adcd59dae4e84bf5d73c39fa1ae82a86525ad373431ed610121033d63feae1b7506fb537bbfbb266cbdf901c3ce7a28443f7bcd2d8233fdd351cb"
      },
      "prevout": {
        "generated": false,
        "height": 578765,
        "value": 2.1,
        "scriptPubKey": {
          "asm": "OP_DUP OP_HASH160 011ca61b28cbcf038af3475ff8511706afb2d262 OP_EQUALVERIFY OP_CHECKSIG",
          "desc": "addr(16szkSVoXn6ntbZXvKmgi5DhecWt7aChg)#hxtherjp",
          "hex": "76a914011ca61b28cbcf038af3475ff8511706afb2d26288ac",
          "address": "16szkSVoXn6ntbZXvKmgi5DhecWt7aChg",
          "type": "pubkeyhash"
        }
      },
      "sequence": 4294967295
    }
  ],
  "vout": [
    {
      "value": 2.300152,
      "n": 0,
      "scriptPubKey": {
        "asm": "OP_HASH160 a32acf5ae0936a1bfb9dcfe252b96bad22b706a6 OP_EQUAL",
        "desc": "addr(3GZmMJTAfjLqyvE2xccDqbUD54tiYjv6Kr)#sj23pxc4",
        "hex": "a914a32acf5ae0936a1bfb9dcfe252b96bad22b706a687",
        "address": "3GZmMJTAfjLqyvE2xccDqbUD54tiYjv6Kr",
        "type": "scripthash"
      }
    },
    {
      "value": 0.0,
      "n": 1,
      "scriptPubKey": {
        "asm": "OP_RETURN bdaf8a8067dae5b453e0e27bd33521c166ddc5dc481ee993006dcea30e6e2e5b",
        "desc": "raw(6a20bdaf8a8067dae5b453e0e27bd33521c166ddc5dc481ee993006dcea30e6e2e5b)#jv4xepcy",
        "hex": "6a20bdaf8a8067dae5b453e0e27bd33521c166ddc5dc481ee993006dcea30e6e2e5b",
        "type": "nulldata"
      }
    }
  ],
  "fee": 0.000152,
  "hex": "01000000027481d3b9997437e6b07688b0c3bc43e1ac8fd7a245adeb1a3969fa8014f5aef4010000006a473044022023580b1b97c1d9bf7b5fd71104f76ceb7efb6f1d8749cf8cae8565da0deb253a02200cc0f09e2dd38330ac1c08b519860915bafd6f9deacf89516dbf8c0c81e129af0121023df8cde8f0a20a65a0492163d0b7ed5fe7bc93d47365063514bc9f264de2f1e3ffffffff62fa6f6f7778940c3ec3669a2468b6393be75b808702f3806937a0d69c3b461b010000006a47304402207fa87f7dbede82349b4ecc3836a3c11a06f817c74aace9adc30a944130f4d58f02205f7bfe81adc802661adcd59dae4e84bf5d73c39fa1ae82a86525ad373431ed610121033d63feae1b7506fb537bbfbb266cbdf901c3ce7a28443f7bcd2d8233fdd351cbffffffff02e0c0b50d0000000017a914a32acf5ae0936a1bfb9dcfe252b96bad22b706a6870000000000000000226a20bdaf8a8067dae5b453e0e27bd33521c166ddc5dc481ee993006dcea30e6e2e5b00000000",
  "blockhash": "000000000000000000056048a2047393b79e10a1c873a7b1581fccc4d096b687",
  "confirmations": 234706,
  "time": 1559373715,
  "blocktime": 1559373715
}
