{
  "txid": "018a41f230cea34727782027e8520b89a7f990b4e4597174750e8dc5c47fa4e9",
  "hash": "8beb72591459d2760a06a3abff3d34ab5fb5888c05f12e87b00f33d8b7bed5f6",
  "version": 2,
  "size": 370,
  "vsize": 208,
  "weight": 832,
  "locktime": 813467,
  "vin": [
    {
      "txid": "c44f7ae31ae09f4fbe40a5c95264f2b1bdeaf97b57d9b9d053e83447626060bf",
      "vout": 1,
      "scriptSig": {
        "asm": "",
        "hex": ""
      },
      "txinwitness": [
        "304402203ca02664faf408a6ddbd84c276bbd794006341e1cf1d3ce3dd653334cbe1eeb70220431d3f6d45677df713579b5ea444364d9d05c22698c51c5670f9885cb0732be301",
        "0281fff4cef882f470c0d8a6f2e655763bf873d6f541cb8eedbe9dd79ae1150c5b"
      ],
      "prevout": {
        "generated": false,
        "height": 813459,
        "value": 0.01054644,
        "scriptPubKey": {
          "asm": "0 ca14ceb52cca507125955f573d49da5963e73dae",
          "desc": "addr(bc1qeg2vadfvefg8zfv4tatn6jw6t937w0dwkyua34)#zuuqqxmm",
          "hex": "0014ca14ceb52cca507125955f573d49da5963e73dae",
          "address": "bc1qeg2vadfvefg8zfv4tatn6jw6t937w0dwkyua34",
          "type": "witness_v0_keyhash"
        }
      },
      "sequence": 4294967294
    },
    {
      "txid": "194dc9b66f22b6c3841caaf35da35550aca7c87989ed66040dcf66d914d44473",
      "vout": 0,
      "scriptSig": {
        "asm": "",
        "hex": ""
      },
      "txinwitness": [
        "30440220502dd201f139af1061beb90a16135f7db64718ff615dff222ac724d07e86e0c9022009155e01a4f4243bd48f00555a89d070924578df592fc5f90f44f4870a59401c01",
        "02dda0153355779d60b2d450fbab56de4c58d50edc3451d56b8e766c2205978528"
      ],
      "prevout": {
        "generated": false,
        "height": 813454,
        "value": 0.0100167,
        "scriptPubKey": {
          "asm": "0 c018fe941d733aa966a97d2ab22d5d1b897b8640",
          "desc": "addr(bc1qcqv0a9qawva2je4f054tyt2arwyhhpjqq0kuv7)#xlpgymzy",
          "hex": "0014c018fe941d733aa966a97d2ab22d5d1b897b8640",
          "address": "bc1qcqv0a9qawva2je4f054tyt2arwyhhpjqq0kuv7",
          "type": "witness_v0_keyhash"
        }
      },
      "sequence": 4294967294
    }
  ],
  "vout": [
    {
      "value": 0.0042145,
      "n": 0,
      "scriptPubKey": {
        "asm": "0 52f2cdc0426a784729cfbe4ab3679ec3e544c082",
        "desc": "addr(bc1q2tevmszzdfuyw2w0he9txeu7c0j5fsyzpctnvr)#tsdujf7a",
        "hex": "001452f2cdc0426a784729cfbe4ab3679ec3e544c082",
        "address": "bc1q2tevmszzdfuyw2w0he9txeu7c0j5fsyzpctnvr",
        "type": "witness_v0_keyhash"
      }
    },
    {
      "value": 0.01572464,
      "n": 1,
      "scriptPubKey": {
        "asm": "0 e8bac02c2c478ee45b8098ef051073db3aefe1d7",
        "desc": "addr(bc1qazavqtpvg78wgkuqnrhs2yrnmvawlcwhek3r5u)#jtg0as56",
        "hex": "0014e8bac02c2c478ee45b8098ef051073db3aefe1d7",
        "address": "bc1qazavqtpvg78wgkuqnrhs2yrnmvawlcwhek3r5u",
        "type": "witness_v0_keyhash"
      }
    }
  ],
  "fee": 0.000624,
  "hex": "02000000000102bf6060624734e853d0b9d9577bf9eabdb1f26452c9a540be4f9fe01ae37a4fc40100000000feffffff7344d414d966cf0d0466ed8979c8a7ac5055a35df3aa1c84c3b6226fb6c94d190000000000feffffff024a6e06000000000016001452f2cdc0426a784729cfbe4ab3679ec3e544c08270fe170000000000160014e8bac02c2c478ee45b8098ef051073db3aefe1d70247304402203ca02664faf408a6ddbd84c276bbd794006341e1cf1d3ce3dd653334cbe1eeb70220431d3f6d45677df713579b5ea444364d9d05c22698c51c5670f9885cb0732be301210281fff4cef882f470c0d8a6f2e655763bf873d6f541cb8eedbe9dd79ae1150c5b024730440220502dd201f139af1061beb90a16135f7db64718ff615dff222ac724d07e86e0c9022009155e01a4f4243bd48f00555a89d070924578df592fc5f90f44f4870a59401c012102dda0153355779d60b2d450fbab56de4c58d50edc3451d56b8e766c22059785289b690c00",
  "blockhash": "000000000000000000002c5589ae71be5b857280e74344305754c720b8b69aae",
  "confirmations": 6,
  "time": 1698052891,
  "blocktime": 1698052891
}
