{
  "additionalData": {},
  "data": {
    "txid": "1ab7ed0642bf84b2d86b62e160da85642358604e7c2b3e5ae14f31cc1afc58f2",
    "hash": "bab57573eccfd6d868b131d068c3baddf143809b2ed3f2f8541ab52c0c181965",
    "version": 2,
    "size": 739,
    "vsize": 415,
    "weight": 1660,
    "locktime": 0,
    "vin": [
      {
        "txid": "38e04905146ec9cea65071d7bf392141bb2125ee0cd40536254ba3d61ffc1780",
        "vout": 2,
        "scriptSig": {
          "asm": "",
          "hex": ""
        },
        "txinwitness": [
          "30440220214d8ccdc162a22678140ae98abd4b5b0ac7e58dac66bcda083c25a36c25ef4c022048a81fbe0f33f4b667e9eda907d785deaf8eca6195061646ae7662129903857f01",
          "03afcab1591fc1c895f610a275faaa6356370acb614092b18be29d6fc084ac8291"
        ],
        "prevout": {
          "generated": false,
          "height": 2408254,
          "value": 0.01116254,
          "scriptPubKey": {
            "asm": "0 5deb6416988f58e13aef30a1738fc7e626399711",
            "desc": "addr(tb1qth4kg95c3avwzwh0xzsh8r78ucnrn9c3a7awtn)#vdh4uend",
            "hex": "00145deb6416988f58e13aef30a1738fc7e626399711",
            "address": "tb1qth4kg95c3avwzwh0xzsh8r78ucnrn9c3a7awtn",
            "type": "witness_v0_keyhash"
          }
        },
        "sequence": 4294967295
      },
      {
        "txid": "9ab9bc4ae21441dd70ef06732d5eaa0c90f083e2580ee022d712a036fe7ac022",
        "vout": 0,
        "scriptSig": {
          "asm": "",
          "hex": ""
        },
        "txinwitness": [
          "304502210091457b4ccde968932b3dcf5de05f5cf0f05919bfa6c03094d2ebb3604145880e02204b06b9f654f7828cc640a18ed3a07f88d7269ff577653c671a18bd98887a459001",
          "03afcab1591fc1c895f610a275faaa6356370acb614092b18be29d6fc084ac8291"
        ],
        "prevout": {
          "generated": false,
          "height": 2408428,
          "value": 0.00006,
          "scriptPubKey": {
            "asm": "0 5deb6416988f58e13aef30a1738fc7e626399711",
            "desc": "addr(tb1qth4kg95c3avwzwh0xzsh8r78ucnrn9c3a7awtn)#vdh4uend",
            "hex": "00145deb6416988f58e13aef30a1738fc7e626399711",
            "address": "tb1qth4kg95c3avwzwh0xzsh8r78ucnrn9c3a7awtn",
            "type": "witness_v0_keyhash"
          }
        },
        "sequence": 4294967295
      },
      {
        "txid": "ace8f846bc1c26062878c936a77df780e6ad6da53ec229693e47e788b3ffb9b9",
        "vout": 0,
        "scriptSig": {
          "asm": "",
          "hex": ""
        },
        "txinwitness": [
          "3045022100a02cce4d462b7f36a0b85a59c3efed02e9ed41eab8dec4c50d3cd50acf5d0c710220448bf8145053cd244f73f3a8c990edf749beb315ad3e99d54620621ef477753801",
          "03afcab1591fc1c895f610a275faaa6356370acb614092b18be29d6fc084ac8291"
        ],
        "prevout": {
          "generated": false,
          "height": 2408427,
          "value": 0.0132738,
          "scriptPubKey": {
            "asm": "0 5deb6416988f58e13aef30a1738fc7e626399711",
            "desc": "addr(tb1qth4kg95c3avwzwh0xzsh8r78ucnrn9c3a7awtn)#vdh4uend",
            "hex": "00145deb6416988f58e13aef30a1738fc7e626399711",
            "address": "tb1qth4kg95c3avwzwh0xzsh8r78ucnrn9c3a7awtn",
            "type": "witness_v0_keyhash"
          }
        },
        "sequence": 4294967295
      },
      {
        "txid": "753f11bfa76ef2dd9f704cb72e8609c72091f9c1eb8cdc3c1bb02a10ea8c447e",
        "vout": 0,
        "scriptSig": {
          "asm": "",
          "hex": ""
        },
        "txinwitness": [
          "304402205ec881123114acd376bcd430ac179875d2e991201bc2aadecba9540e21f96903022046cc5d5575bffeb79f6732d5a1e67751f1ea362b5a4c73a7a78ea301bbf7fb9201",
          "03afcab1591fc1c895f610a275faaa6356370acb614092b18be29d6fc084ac8291"
        ],
        "prevout": {
          "generated": false,
          "height": 2409607,
          "value": 0.01216672,
          "scriptPubKey": {
            "asm": "0 5deb6416988f58e13aef30a1738fc7e626399711",
            "desc": "addr(tb1qth4kg95c3avwzwh0xzsh8r78ucnrn9c3a7awtn)#vdh4uend",
            "hex": "00145deb6416988f58e13aef30a1738fc7e626399711",
            "address": "tb1qth4kg95c3avwzwh0xzsh8r78ucnrn9c3a7awtn",
            "type": "witness_v0_keyhash"
          }
        },
        "sequence": 4294967295
      }
    ],
    "vout": [
      {
        "value": 0.035,
        "n": 0,
        "scriptPubKey": {
          "asm": "0 3e58fe970fb5d9cdf074769ae2c05c158bdd27df",
          "desc": "addr(tb1q8ev0a9c0khvumur5w6dw9szuzk9a6f7lh6jlhz)#tw4jqdc4",
          "hex": "00143e58fe970fb5d9cdf074769ae2c05c158bdd27df",
          "address": "tb1q8ev0a9c0khvumur5w6dw9szuzk9a6f7lh6jlhz",
          "type": "witness_v0_keyhash"
        }
      },
      {
        "value": 0.0,
        "n": 1,
        "scriptPubKey": {
          "asm": "OP_RETURN 656363376f315834542b2f3832693073314e59626e486c5a47637a615752453743576965536a556138474b356c47426372506564415141424f49453d",
          "desc": "raw(6a3c656363376f315834542b2f3832693073314e59626e486c5a47637a615752453743576965536a556138474b356c47426372506564415141424f49453d)#9txj32sr",
          "hex": "6a3c656363376f315834542b2f3832693073314e59626e486c5a47637a615752453743576965536a556138474b356c47426372506564415141424f49453d",
          "type": "nulldata"
        }
      },
      {
        "value": 0.00144076,
        "n": 2,
        "scriptPubKey": {
          "asm": "0 5deb6416988f58e13aef30a1738fc7e626399711",
          "desc": "addr(tb1qth4kg95c3avwzwh0xzsh8r78ucnrn9c3a7awtn)#vdh4uend",
          "hex": "00145deb6416988f58e13aef30a1738fc7e626399711",
          "address": "tb1qth4kg95c3avwzwh0xzsh8r78ucnrn9c3a7awtn",
          "type": "witness_v0_keyhash"
        }
      }
    ],
    "fee": 0.0002223,
    "hex": "020000000001048017fc1fd6a34b253605d40cee2521bb412139bfd77150a6cec96e140549e0380200000000ffffffff22c07afe36a012d722e00e58e283f0900caa5e2d7306ef70dd4114e24abcb99a0000000000ffffffffb9b9ffb388e7473e6929c23ea56dade680f77da736c9782806261cbc46f8e8ac0000000000ffffffff7e448cea102ab01b3cdc8cebc1f99120c709862eb74c709fddf26ea7bf113f750000000000ffffffff03e0673500000000001600143e58fe970fb5d9cdf074769ae2c05c158bdd27df00000000000000003e6a3c656363376f315834542b2f3832693073314e59626e486c5a47637a615752453743576965536a556138474b356c47426372506564415141424f49453dcc320200000000001600145deb6416988f58e13aef30a1738fc7e626399711024730440220214d8ccdc162a22678140ae98abd4b5b0ac7e58dac66bcda083c25a36c25ef4c022048a81fbe0f33f4b667e9eda907d785deaf8eca6195061646ae7662129903857f012103afcab1591fc1c895f610a275faaa6356370acb614092b18be29d6fc084ac82910248304502210091457b4ccde968932b3dcf5de05f5cf0f05919bfa6c03094d2ebb3604145880e02204b06b9f654f7828cc640a18ed3a07f88d7269ff577653c671a18bd98887a4590012103afcab1591fc1c895f610a275faaa6356370acb614092b18be29d6fc084ac829102483045022100a02cce4d462b7f36a0b85a59c3efed02e9ed41eab8dec4c50d3cd50acf5d0c710220448bf8145053cd244f73f3a8c990edf749beb315ad3e99d54620621ef4777538012103afcab1591fc1c895f610a275faaa6356370acb614092b18be29d6fc084ac82910247304402205ec881123114acd376bcd430ac179875d2e991201bc2aadecba9540e21f96903022046cc5d5575bffeb79f6732d5a1e67751f1ea362b5a4c73a7a78ea301bbf7fb92012103afcab1591fc1c895f610a275faaa6356370acb614092b18be29d6fc084ac829100000000",
    "blockhash": "0000000000000010185bd34b5aeed1ae59e3f7967c8d854efec9588918902680",
    "confirmations": 33238,
    "time": 1670075396,
    "blocktime": 1670075396
  }
}
