{
   "additionalData": {
      "vinouts": [
         {
            "index": 0,
            "vinvout": {
               "n": 1,
               "scriptPubKey": {
                  "address": "tb1qclncftkey54rmce6ncvv2pt9e5tnfjtt7ujr5p",
                  "asm": "0 c7e784aed9252a3de33a9e18c50565cd1734c96b",
                  "desc": "addr(tb1qclncftkey54rmce6ncvv2pt9e5tnfjtt7ujr5p)#cylax9sq",
                  "hex": "0014c7e784aed9252a3de33a9e18c50565cd1734c96b",
                  "type": "witness_v0_keyhash"
               },
               "value": 0.00008235
            }
         },
         {
            "index": 1,
            "vinvout": {
               "n": 2,
               "scriptPubKey": {
                  "address": "tb1qclncftkey54rmce6ncvv2pt9e5tnfjtt7ujr5p",
                  "asm": "0 c7e784aed9252a3de33a9e18c50565cd1734c96b",
                  "desc": "addr(tb1qclncftkey54rmce6ncvv2pt9e5tnfjtt7ujr5p)#cylax9sq",
                  "hex": "0014c7e784aed9252a3de33a9e18c50565cd1734c96b",
                  "type": "witness_v0_keyhash"
               },
               "value": 0.00006409
            }
         }
      ]
   },
   "data": {
      "blockhash": "00000000007e24005e44dc3cb3ba470102917c19adc03be8deac0ba6c519da9c",
      "blocktime": 1670419075,
      "confirmations": 1,
      "fee": 0.00008644,
      "hash": "f6a6704f958ad4de9f82bcfb5d7df326fd7f7a9344c9d30a7929ad4d558405b9",
      "hex": "02000000000102138227d1296e6230311552719285ace266743e5c0a82db40bc1546fa197d4ef60100000000ffffffff15cc785a94a0d36886ccd633c70a9be0429327c3e7a68537e0cb892b1e563cdb0200000000ffffffff0270170000000000001600143e58fe970fb5d9cdf074769ae2c05c158bdd27df00000000000000003e6a3c656363376f315834542b2f3832693073314e59626e486c5a476377554f5a385a4e505368714339707730545437415131587939304e7741424f49453d0247304402202a9772c5f7d1096fb9d34c98bd6408419f91ad867c9b8f79fd7f0b0762bdbb9d02204dc42e00849524806307eecf553f757d9814b63e62df3a1eef8a312bf7bc32bc0121034b2a6add76133eacf65bafea972a4d62c21bb3761500e6b0cfd3fce7c554ab51024730440220414864fba0842461a0e75e9321feb970c76d578822e8097dbdb7cb002489ea040220364cb3e614fed0e04d134e66900dbbd25cfbdca1b1b7ab6bb82d2103f4fb55830121034b2a6add76133eacf65bafea972a4d62c21bb3761500e6b0cfd3fce7c554ab5100000000",
      "locktime": 0,
      "size": 410,
      "time": 1670419075,
      "txid": "7e97d5bf2ab5f369792dc84d3e746196ac161d97c383ebedfa603df73c69d7cc",
      "version": 2,
      "vin": [
         {
            "scriptSig": {
               "asm": "",
               "hex": ""
            },
            "sequence": 4294967295,
            "txid": "f64e7d19fa4615bc40db820a5c3e7466e2ac85927152153130626e29d1278213",
            "txinwitness": [
               "304402202a9772c5f7d1096fb9d34c98bd6408419f91ad867c9b8f79fd7f0b0762bdbb9d02204dc42e00849524806307eecf553f757d9814b63e62df3a1eef8a312bf7bc32bc01",
               "034b2a6add76133eacf65bafea972a4d62c21bb3761500e6b0cfd3fce7c554ab51"
            ],
            "vout": 1
         },
         {
            "scriptSig": {
               "asm": "",
               "hex": ""
            },
            "sequence": 4294967295,
            "txid": "db3c561e2b89cbe03785a6e7c3279342e09b0ac733d6cc8668d3a0945a78cc15",
            "txinwitness": [
               "30440220414864fba0842461a0e75e9321feb970c76d578822e8097dbdb7cb002489ea040220364cb3e614fed0e04d134e66900dbbd25cfbdca1b1b7ab6bb82d2103f4fb558301",
               "034b2a6add76133eacf65bafea972a4d62c21bb3761500e6b0cfd3fce7c554ab51"
            ],
            "vout": 2
         }
      ],
      "vout": [
         {
            "n": 0,
            "scriptPubKey": {
               "address": "tb1q8ev0a9c0khvumur5w6dw9szuzk9a6f7lh6jlhz",
               "asm": "0 3e58fe970fb5d9cdf074769ae2c05c158bdd27df",
               "desc": "addr(tb1q8ev0a9c0khvumur5w6dw9szuzk9a6f7lh6jlhz)#tw4jqdc4",
               "hex": "00143e58fe970fb5d9cdf074769ae2c05c158bdd27df",
               "type": "witness_v0_keyhash"
            },
            "value": 0.00006
         },
         {
            "n": 1,
            "scriptPubKey": {
               "asm": "OP_RETURN 656363376f315834542b2f3832693073314e59626e486c5a476377554f5a385a4e505368714339707730545437415131587939304e7741424f49453d",
               "desc": "raw(6a3c656363376f315834542b2f3832693073314e59626e486c5a476377554f5a385a4e505368714339707730545437415131587939304e7741424f49453d)#hf03dnar",
               "hex": "6a3c656363376f315834542b2f3832693073314e59626e486c5a476377554f5a385a4e505368714339707730545437415131587939304e7741424f49453d",
               "type": "nulldata"
            },
            "value": 0
         }
      ],
      "vsize": 248,
      "weight": 992
   }
}