{
  "additionalData": {},
  "data": {
    "txid": "2210509d33bd05103341b183f8a0b9c05fc4524dcdcadee8cd34f76a5cbfcde4",
    "hash": "de4218a0b1f757a2eb90e5d914c5940275a38220df4151578308d7118804f3e4",
    "version": 2,
    "size": 1631,
    "vsize": 823,
    "weight": 3290,
    "locktime": 0,
    "vin": [
      {
        "txid": "9ed058209928d1615e4b59351032f1eea27d1f6588137546a14fe7aad9865501",
        "vout": 1,
        "scriptSig": {
          "asm": "",
          "hex": ""
        },
        "txinwitness": [
          "3045022100d141cfd09b83c7d53110118f26f2286f4f3f996bbf546e1b8f1898ee5b98b3800220698f9e07300b9ec33cd9003246d4d425a5b98fcf91d30ffc3fb3a0743188c5ae01",
          "02e03bbd4df14e765bb3403458a66e6de116484744a573c90fbf3ebaa80e3cecf3"
        ],
        "prevout": {
          "generated": false,
          "height": 2408211,
          "value": 0.00006,
          "scriptPubKey": {
            "asm": "0 dcf2cae44c9a783a41bafb410d18eca2365ec42a",
            "desc": "addr(tb1qmnev4ezvnfur5sd6ldqs6x8v5gm9a3p28cjkfp)#kqn0akpm",
            "hex": "0014dcf2cae44c9a783a41bafb410d18eca2365ec42a",
            "address": "tb1qmnev4ezvnfur5sd6ldqs6x8v5gm9a3p28cjkfp",
            "type": "witness_v0_keyhash"
          }
        },
        "sequence": 4294967295
      },
      {
        "txid": "faf30a86282c35d1bc8deeb41089353ba0417849c9fb54c603f7b9df412b0202",
        "vout": 2,
        "scriptSig": {
          "asm": "",
          "hex": ""
        },
        "txinwitness": [
          "304402203432ccde9979164091131fa25c6dcac21053e45d2ae86f7bab0019d54c9ec08302202a3950991c4e74995063e07afb50740e3fd51d0e5b848f7f41eca30508248eb901",
          "02e03bbd4df14e765bb3403458a66e6de116484744a573c90fbf3ebaa80e3cecf3"
        ],
        "prevout": {
          "generated": false,
          "height": 2408211,
          "value": 0.00006,
          "scriptPubKey": {
            "asm": "0 dcf2cae44c9a783a41bafb410d18eca2365ec42a",
            "desc": "addr(tb1qmnev4ezvnfur5sd6ldqs6x8v5gm9a3p28cjkfp)#kqn0akpm",
            "hex": "0014dcf2cae44c9a783a41bafb410d18eca2365ec42a",
            "address": "tb1qmnev4ezvnfur5sd6ldqs6x8v5gm9a3p28cjkfp",
            "type": "witness_v0_keyhash"
          }
        },
        "sequence": 4294967295
      },
      {
        "txid": "3823314279add888fd57e490dc60575745f963745a8e5ea5c3c7fb69638f76ca",
        "vout": 1,
        "scriptSig": {
          "asm": "",
          "hex": ""
        },
        "txinwitness": [
          "304502210081bcb7687e2655aea931067ee7693dd84add751922d5ddcd37f854235f856fae022065c8b15b6d35c5c77730b6c49a19bf09d7c5086a02602f1b88622c1244af3fac01",
          "02e03bbd4df14e765bb3403458a66e6de116484744a573c90fbf3ebaa80e3cecf3"
        ],
        "prevout": {
          "generated": false,
          "height": 2408211,
          "value": 0.00016548,
          "scriptPubKey": {
            "asm": "0 dcf2cae44c9a783a41bafb410d18eca2365ec42a",
            "desc": "addr(tb1qmnev4ezvnfur5sd6ldqs6x8v5gm9a3p28cjkfp)#kqn0akpm",
            "hex": "0014dcf2cae44c9a783a41bafb410d18eca2365ec42a",
            "address": "tb1qmnev4ezvnfur5sd6ldqs6x8v5gm9a3p28cjkfp",
            "type": "witness_v0_keyhash"
          }
        },
        "sequence": 4294967295
      },
      {
        "txid": "c80aee25afa24cae225ee6a5f687a136672a689b124fd87ecc68371143c98aaa",
        "vout": 2,
        "scriptSig": {
          "asm": "",
          "hex": ""
        },
        "txinwitness": [
          "30450221009c29ae161838cb59f3c297a88b642efbb2084a3712b2c448207c71cf3d21bf9902207613323d19371d3a31255d4bd51334e1ccd1455eb0c3a472d699f5a04024b81601",
          "02e03bbd4df14e765bb3403458a66e6de116484744a573c90fbf3ebaa80e3cecf3"
        ],
        "prevout": {
          "generated": false,
          "height": 2408227,
          "value": 0.00075801,
          "scriptPubKey": {
            "asm": "0 dcf2cae44c9a783a41bafb410d18eca2365ec42a",
            "desc": "addr(tb1qmnev4ezvnfur5sd6ldqs6x8v5gm9a3p28cjkfp)#kqn0akpm",
            "hex": "0014dcf2cae44c9a783a41bafb410d18eca2365ec42a",
            "address": "tb1qmnev4ezvnfur5sd6ldqs6x8v5gm9a3p28cjkfp",
            "type": "witness_v0_keyhash"
          }
        },
        "sequence": 4294967295
      },
      {
        "txid": "4ad048186e071255de058bbc2dec552e53f32c5fff41f44f6ee992a7db671a1c",
        "vout": 0,
        "scriptSig": {
          "asm": "",
          "hex": ""
        },
        "txinwitness": [
          "30440220047bbf8564c0dcf0983414de3e1f9608976f4690df3529ef0fb159938e0a14b90220730caa17b8f21bb8474001fd7c520ef9df6481b41f6fe596c702bd560156f17e01",
          "02e03bbd4df14e765bb3403458a66e6de116484744a573c90fbf3ebaa80e3cecf3"
        ],
        "prevout": {
          "generated": false,
          "height": 2408414,
          "value": 0.00006,
          "scriptPubKey": {
            "asm": "0 dcf2cae44c9a783a41bafb410d18eca2365ec42a",
            "desc": "addr(tb1qmnev4ezvnfur5sd6ldqs6x8v5gm9a3p28cjkfp)#kqn0akpm",
            "hex": "0014dcf2cae44c9a783a41bafb410d18eca2365ec42a",
            "address": "tb1qmnev4ezvnfur5sd6ldqs6x8v5gm9a3p28cjkfp",
            "type": "witness_v0_keyhash"
          }
        },
        "sequence": 4294967295
      },
      {
        "txid": "be23831ddcd9790fec9f7e0739c6118c9ee7bb64deeb929a3ef43a7fb7c3bbab",
        "vout": 0,
        "scriptSig": {
          "asm": "",
          "hex": ""
        },
        "txinwitness": [
          "304402203e8d7ddadd938ed04aaa863735da8dfd3c7669818850480e72f0488034c3ab2b022038234d91472722f974c9d520ea50878be7c55976619243c1acd8f9d73af70bd301",
          "02e03bbd4df14e765bb3403458a66e6de116484744a573c90fbf3ebaa80e3cecf3"
        ],
        "prevout": {
          "generated": false,
          "height": 2409205,
          "value": 0.00006,
          "scriptPubKey": {
            "asm": "0 dcf2cae44c9a783a41bafb410d18eca2365ec42a",
            "desc": "addr(tb1qmnev4ezvnfur5sd6ldqs6x8v5gm9a3p28cjkfp)#kqn0akpm",
            "hex": "0014dcf2cae44c9a783a41bafb410d18eca2365ec42a",
            "address": "tb1qmnev4ezvnfur5sd6ldqs6x8v5gm9a3p28cjkfp",
            "type": "witness_v0_keyhash"
          }
        },
        "sequence": 4294967295
      },
      {
        "txid": "9f27d395d2143fcfd3f6844917247c0192a6ef3e6981369b284cba74ee341e13",
        "vout": 1,
        "scriptSig": {
          "asm": "",
          "hex": ""
        },
        "txinwitness": [
          "3045022100c205a3dc056925854dc8be88e65938eb7e124f7e62c19cdaeb77dadd086a486b02200baab7ffd1ae11ccc5dc77c68886a44ccc1b76e8e6e4bdf2dfd735f88320294d01",
          "02e03bbd4df14e765bb3403458a66e6de116484744a573c90fbf3ebaa80e3cecf3"
        ],
        "prevout": {
          "generated": false,
          "height": 2409205,
          "value": 0.00010534,
          "scriptPubKey": {
            "asm": "0 dcf2cae44c9a783a41bafb410d18eca2365ec42a",
            "desc": "addr(tb1qmnev4ezvnfur5sd6ldqs6x8v5gm9a3p28cjkfp)#kqn0akpm",
            "hex": "0014dcf2cae44c9a783a41bafb410d18eca2365ec42a",
            "address": "tb1qmnev4ezvnfur5sd6ldqs6x8v5gm9a3p28cjkfp",
            "type": "witness_v0_keyhash"
          }
        },
        "sequence": 4294967295
      },
      {
        "txid": "aab7fc56747dd676c5e7d8789f714ebd0940c0e752835bf541c922386f09e6a5",
        "vout": 0,
        "scriptSig": {
          "asm": "",
          "hex": ""
        },
        "txinwitness": [
          "3045022100fbabad46d01ed9aa3dd85eb6a2869bf5b7e96ef430c87f46f309c883e51e11db02207ae46468266f9122092d1f43420b76e99453519f6eac44dca9ee3ecadfbb278601",
          "02e03bbd4df14e765bb3403458a66e6de116484744a573c90fbf3ebaa80e3cecf3"
        ],
        "prevout": {
          "generated": false,
          "height": 2409204,
          "value": 0.00006,
          "scriptPubKey": {
            "asm": "0 dcf2cae44c9a783a41bafb410d18eca2365ec42a",
            "desc": "addr(tb1qmnev4ezvnfur5sd6ldqs6x8v5gm9a3p28cjkfp)#kqn0akpm",
            "hex": "0014dcf2cae44c9a783a41bafb410d18eca2365ec42a",
            "address": "tb1qmnev4ezvnfur5sd6ldqs6x8v5gm9a3p28cjkfp",
            "type": "witness_v0_keyhash"
          }
        },
        "sequence": 4294967295
      },
      {
        "txid": "87a827639fa389d8195d833b0127c9f15eb234cc2009475ac5f6ebc891e7f07a",
        "vout": 0,
        "scriptSig": {
          "asm": "",
          "hex": ""
        },
        "txinwitness": [
          "3045022100fbaedbe605544b6a1fcf1cae51920aba52b584a742b0c1c9cda0dfea409a747402205e9a41f461d766537c1962f78a8a91904b0b7f09ddaf0149cb6060fbb594266101",
          "02e03bbd4df14e765bb3403458a66e6de116484744a573c90fbf3ebaa80e3cecf3"
        ],
        "prevout": {
          "generated": false,
          "height": 2409204,
          "value": 0.01758472,
          "scriptPubKey": {
            "asm": "0 dcf2cae44c9a783a41bafb410d18eca2365ec42a",
            "desc": "addr(tb1qmnev4ezvnfur5sd6ldqs6x8v5gm9a3p28cjkfp)#kqn0akpm",
            "hex": "0014dcf2cae44c9a783a41bafb410d18eca2365ec42a",
            "address": "tb1qmnev4ezvnfur5sd6ldqs6x8v5gm9a3p28cjkfp",
            "type": "witness_v0_keyhash"
          }
        },
        "sequence": 4294967295
      },
      {
        "txid": "b2e85caa32aa3e82a02f3be655fe59f9a5b484a13d8440e576ac87568ef8b4ee",
        "vout": 1,
        "scriptSig": {
          "asm": "",
          "hex": ""
        },
        "txinwitness": [
          "304402204c785da1a148527bb38856c8a56c7b2d531eb02f73c4f504ca5220dbedd15eaf02205fc82f6c1ca8e568fc232cd8c6e3b408fb92949225c5a20afc04bac389eef3b501",
          "02e03bbd4df14e765bb3403458a66e6de116484744a573c90fbf3ebaa80e3cecf3"
        ],
        "prevout": {
          "generated": false,
          "height": 2408414,
          "value": 0.01773693,
          "scriptPubKey": {
            "asm": "0 dcf2cae44c9a783a41bafb410d18eca2365ec42a",
            "desc": "addr(tb1qmnev4ezvnfur5sd6ldqs6x8v5gm9a3p28cjkfp)#kqn0akpm",
            "hex": "0014dcf2cae44c9a783a41bafb410d18eca2365ec42a",
            "address": "tb1qmnev4ezvnfur5sd6ldqs6x8v5gm9a3p28cjkfp",
            "type": "witness_v0_keyhash"
          }
        },
        "sequence": 4294967295
      }
    ],
    "vout": [
      {
        "value": 0.032,
        "n": 0,
        "scriptPubKey": {
          "asm": "0 3e58fe970fb5d9cdf074769ae2c05c158bdd27df",
          "desc": "addr(tb1q8ev0a9c0khvumur5w6dw9szuzk9a6f7lh6jlhz)#tw4jqdc4",
          "hex": "00143e58fe970fb5d9cdf074769ae2c05c158bdd27df",
          "address": "tb1q8ev0a9c0khvumur5w6dw9szuzk9a6f7lh6jlhz",
          "type": "witness_v0_keyhash"
        }
      },
      {
        "value": 0.0,
        "n": 1,
        "scriptPubKey": {
          "asm": "OP_RETURN 656363376f315834542b2f3832693073314e59626e486c5a476378637743334a45424741656764384c786f6a46523855466663346f6741414141553d",
          "desc": "raw(6a3c656363376f315834542b2f3832693073314e59626e486c5a476378637743334a45424741656764384c786f6a46523855466663346f6741414141553d)#m77k534r",
          "hex": "6a3c656363376f315834542b2f3832693073314e59626e486c5a476378637743334a45424741656764384c786f6a46523855466663346f6741414141553d",
          "type": "nulldata"
        }
      },
      {
        "value": 0.00419436,
        "n": 2,
        "scriptPubKey": {
          "asm": "0 dcf2cae44c9a783a41bafb410d18eca2365ec42a",
          "desc": "addr(tb1qmnev4ezvnfur5sd6ldqs6x8v5gm9a3p28cjkfp)#kqn0akpm",
          "hex": "0014dcf2cae44c9a783a41bafb410d18eca2365ec42a",
          "address": "tb1qmnev4ezvnfur5sd6ldqs6x8v5gm9a3p28cjkfp",
          "type": "witness_v0_keyhash"
        }
      }
    ],
    "fee": 0.00045612,
    "hex": "0200000000010a015586d9aae74fa146751388651f7da2eef1321035594b5e61d128992058d09e0100000000ffffffff02022b41dfb9f703c654fbc9497841a03b358910b4ee8dbcd1352c28860af3fa0200000000ffffffffca768f6369fbc7c3a55e8e5a7463f945575760dc90e457fd88d8ad79423123380100000000ffffffffaa8ac943113768cc7ed84f129b682a6736a187f6a5e65e22ae4ca2af25ee0ac80200000000ffffffff1c1a67dba792e96e4ff441ff5f2cf3532e55ec2dbc8b05de5512076e1848d04a0000000000ffffffffabbbc3b77f3af43e9a92ebde64bbe79e8c11c639077e9fec0f79d9dc1d8323be0000000000ffffffff131e34ee74ba4c289b3681693eefa692017c24174984f6d3cf3f14d295d3279f0100000000ffffffffa5e6096f3822c941f55b8352e7c04009bd4e719f78d8e7c576d67d7456fcb7aa0000000000ffffffff7af0e791c8ebf6c55a470920cc34b25ef1c927013b835d19d889a39f6327a8870000000000ffffffffeeb4f88e5687ac76e540843da184b4a5f959fe55e63b2fa0823eaa32aa5ce8b20100000000ffffffff0300d43000000000001600143e58fe970fb5d9cdf074769ae2c05c158bdd27df00000000000000003e6a3c656363376f315834542b2f3832693073314e59626e486c5a476378637743334a45424741656764384c786f6a46523855466663346f6741414141553d6c66060000000000160014dcf2cae44c9a783a41bafb410d18eca2365ec42a02483045022100d141cfd09b83c7d53110118f26f2286f4f3f996bbf546e1b8f1898ee5b98b3800220698f9e07300b9ec33cd9003246d4d425a5b98fcf91d30ffc3fb3a0743188c5ae012102e03bbd4df14e765bb3403458a66e6de116484744a573c90fbf3ebaa80e3cecf30247304402203432ccde9979164091131fa25c6dcac21053e45d2ae86f7bab0019d54c9ec08302202a3950991c4e74995063e07afb50740e3fd51d0e5b848f7f41eca30508248eb9012102e03bbd4df14e765bb3403458a66e6de116484744a573c90fbf3ebaa80e3cecf30248304502210081bcb7687e2655aea931067ee7693dd84add751922d5ddcd37f854235f856fae022065c8b15b6d35c5c77730b6c49a19bf09d7c5086a02602f1b88622c1244af3fac012102e03bbd4df14e765bb3403458a66e6de116484744a573c90fbf3ebaa80e3cecf3024830450221009c29ae161838cb59f3c297a88b642efbb2084a3712b2c448207c71cf3d21bf9902207613323d19371d3a31255d4bd51334e1ccd1455eb0c3a472d699f5a04024b816012102e03bbd4df14e765bb3403458a66e6de116484744a573c90fbf3ebaa80e3cecf3024730440220047bbf8564c0dcf0983414de3e1f9608976f4690df3529ef0fb159938e0a14b90220730caa17b8f21bb8474001fd7c520ef9df6481b41f6fe596c702bd560156f17e012102e03bbd4df14e765bb3403458a66e6de116484744a573c90fbf3ebaa80e3cecf30247304402203e8d7ddadd938ed04aaa863735da8dfd3c7669818850480e72f0488034c3ab2b022038234d91472722f974c9d520ea50878be7c55976619243c1acd8f9d73af70bd3012102e03bbd4df14e765bb3403458a66e6de116484744a573c90fbf3ebaa80e3cecf302483045022100c205a3dc056925854dc8be88e65938eb7e124f7e62c19cdaeb77dadd086a486b02200baab7ffd1ae11ccc5dc77c68886a44ccc1b76e8e6e4bdf2dfd735f88320294d012102e03bbd4df14e765bb3403458a66e6de116484744a573c90fbf3ebaa80e3cecf302483045022100fbabad46d01ed9aa3dd85eb6a2869bf5b7e96ef430c87f46f309c883e51e11db02207ae46468266f9122092d1f43420b76e99453519f6eac44dca9ee3ecadfbb2786012102e03bbd4df14e765bb3403458a66e6de116484744a573c90fbf3ebaa80e3cecf302483045022100fbaedbe605544b6a1fcf1cae51920aba52b584a742b0c1c9cda0dfea409a747402205e9a41f461d766537c1962f78a8a91904b0b7f09ddaf0149cb6060fbb5942661012102e03bbd4df14e765bb3403458a66e6de116484744a573c90fbf3ebaa80e3cecf30247304402204c785da1a148527bb38856c8a56c7b2d531eb02f73c4f504ca5220dbedd15eaf02205fc82f6c1ca8e568fc232cd8c6e3b408fb92949225c5a20afc04bac389eef3b5012102e03bbd4df14e765bb3403458a66e6de116484744a573c90fbf3ebaa80e3cecf300000000",
    "blockhash": "0000000000000032b3fdea3e3572d4c635911a9f4567d0eeb669ee3cc40af52f",
    "confirmations": 33229,
    "time": 1670080383,
    "blocktime": 1670080383
  }
}
