{
  "txid": "b39d8e733bf9f874c7c82019d41b6df1c829f3988694adf5ebdadb1590832225",
  "hash": "b39d8e733bf9f874c7c82019d41b6df1c829f3988694adf5ebdadb1590832225",
  "version": 1,
  "size": 223,
  "vsize": 223,
  "weight": 892,
  "locktime": 0,
  "vin": [
    {
      "txid": "76bc95a50910773d3ae3ad99caeb9868ae76b1ee4a27f7a2c22d57a2670a8c18",
      "vout": 99,
      "scriptSig": {
        "asm": "304402201b6cc3f4cd9818851bcbca2dbd890d2c5b06286e22db9cd9c0b977728dfcbbdc022061b17a3a5310a4a968cb910cd0c9a7ab41e3887cef03be0c00a4222d36118b47[ALL] 02a365a694e4c49ce3744fec0e64a9e8c6aeb190d4edc05a622a4687bc5e33e9d5",
        "hex": "47304402201b6cc3f4cd9818851bcbca2dbd890d2c5b06286e22db9cd9c0b977728dfcbbdc022061b17a3a5310a4a968cb910cd0c9a7ab41e3887cef03be0c00a4222d36118b47012102a365a694e4c49ce3744fec0e64a9e8c6aeb190d4edc05a622a4687bc5e33e9d5"
      },
      "sequence": 4294967295
    }
  ],
  "vout": [
    {
      "value": 0.00837191,
      "n": 0,
      "scriptPubKey": {
        "asm": "OP_HASH160 bad78831264b255dece0a83e8251ec4630115294 OP_EQUAL",
        "desc": "addr(3JiwoefDAm8T61fPUk1dRX3765K9W2BQkV)#ycqjjwdt",
        "hex": "a914bad78831264b255dece0a83e8251ec463011529487",
        "address": "3JiwoefDAm8T61fPUk1dRX3765K9W2BQkV",
        "type": "scripthash"
      }
    },
    {
      "value": 0.01007912,
      "n": 1,
      "scriptPubKey": {
        "asm": "OP_DUP OP_HASH160 6d56ee3a5460874354d664a2f6dcd6800cacb229 OP_EQUALVERIFY OP_CHECKSIG",
        "desc": "addr(1Ay8nxDJQ2qfJX5kaEF9MCax6AtiKU95pW)#j9ujhnz3",
        "hex": "76a9146d56ee3a5460874354d664a2f6dcd6800cacb22988ac",
        "address": "1Ay8nxDJQ2qfJX5kaEF9MCax6AtiKU95pW",
        "type": "pubkeyhash"
      }
    }
  ],
  "hex": "0100000001188c0a67a2572dc2a2f7274aeeb176ae6898ebca99ade33a3d771009a595bc76630000006a47304402201b6cc3f4cd9818851bcbca2dbd890d2c5b06286e22db9cd9c0b977728dfcbbdc022061b17a3a5310a4a968cb910cd0c9a7ab41e3887cef03be0c00a4222d36118b47012102a365a694e4c49ce3744fec0e64a9e8c6aeb190d4edc05a622a4687bc5e33e9d5ffffffff0247c60c000000000017a914bad78831264b255dece0a83e8251ec46301152948728610f00000000001976a9146d56ee3a5460874354d664a2f6dcd6800cacb22988ac00000000",
  "blockhash": "00000000000000000003a4ab93c83783974a86dc73d7e2499420c7eef132eaea",
  "confirmations": 33179,
  "time": 1648480395,
  "blocktime": 1648480395
}
